:100000000C9461000C947E000C947E000C947E0095
:100010000C947E000C947E000C947E000C947E0068
:100020000C947E000C947E000C947E000C947E0058
:100030000C947E000C947E000C947E000C947E0048
:100040000C9432010C947E000C947E000C947E0083
:100050000C947E000C947E000C947E000C947E0028
:100060000C947E000C947E00000000002400270009
:100070002A0000000000250028002B0000000000DE
:1000800023002600290004040404040404040202DA
:100090000202020203030303030301020408102007
:1000A0004080010204081020010204081020000012
:1000B0000007000201000003040600000000000029
:1000C000000011241FBECFEFD8E0DEBFCDBF11E08E
:1000D000A0E0B1E0EEE7F5E002C005900D92A2309D
:1000E000B107D9F711E0A2E0B1E001C01D92AD3037
:1000F000B107E1F70E9452020C94BD020C9400007B
:100100004F925F926F927F928F929F92AF92BF9227
:10011000CF92DF92EF92FF920F931F93482E562EAD
:100120006A0148015901EE24D7FCE094FE2C60E4FA
:1001300072E48FE090E0A70196010E9480023901ED
:10014000142F052FC501B40128EE33E040E050E044
:100150000E9461029301412F502F0E948002690189
:100160007A018824992454011DC0842D61E00E94E5
:10017000FE01852D60E00E94FE01862D972D0E94D4
:100180007A01842D60E00E94FE01852D61E00E94CD
:10019000FE01862D972D0E947A010894811C911CE6
:1001A000A11CB11C8C149D04AE04BF04F4F21F9179
:1001B0000F91FF90EF90DF90CF90BF90AF909F9006
:1001C0008F907F906F905F904F9008950F931F9343
:1001D00081E00E94100124E630E0829FA001839F0D
:1001E000500D929F500D1124509303014093020132
:1001F00083E064E005E010E020E030E00E94800051
:100200001F910F91089584E061E00E94BF0183E097
:1002100061E00E94BF0181E060E00E94BF0108959B
:10022000982F8E3008F09E50977080910001829533
:10023000880F880F807C892B80937C0080917A00C6
:10024000806480937A0080917A0086FDFCCF2091B3
:10025000780040917900942F80E030E0282B392BF2
:10026000C90108951F920F920FB60F9211242F9378
:100270003F938F939F93AF93BF9380910801909189
:100280000901A0910A01B0910B0130910C01019676
:10029000A11DB11D232F2D5F2D3720F02D57019665
:1002A000A11DB11D20930C018093080190930901B9
:1002B000A0930A01B0930B01809104019091050174
:1002C000A0910601B09107010196A11DB11D809377
:1002D000040190930501A0930601B0930701BF911B
:1002E000AF919F918F913F912F910F900FBE0F90E3
:1002F0001F901895019739F0880F991F880F991F43
:1003000002970197F1F70895789484B5826084BDCF
:1003100084B5816084BD85B5826085BD85B5816009
:1003200085BDEEE6F0E0808181608083E1E8F0E069
:100330001082808182608083808181608083E0E898
:10034000F0E0808181608083E1EBF0E08081846077
:100350008083E0EBF0E0808181608083EAE7F0E079
:1003600080818460808380818260808380818160DD
:1003700080838081806880831092C1000895CF932C
:10038000DF93482F50E0CA0186569F4FFC013491FD
:100390004A575F4FFA018491882369F190E0880FF2
:1003A000991FFC01E859FF4FA591B491FC01EE584B
:1003B000FF4FC591D491662351F42FB7F8948C91D7
:1003C000932F909589238C93888189230BC0623069
:1003D00061F42FB7F8948C91932F909589238C9387
:1003E0008881832B88832FBF06C09FB7F8948C9198
:1003F000832B8C939FBFDF91CF910895482F50E0BE
:10040000CA0182559F4FFC012491CA0186569F4F15
:10041000FC0194914A575F4FFA013491332309F458
:1004200040C0222351F1233071F0243028F42130D0
:10043000A1F0223011F514C02630B1F02730C1F000
:100440002430D9F404C0809180008F7703C080915C
:1004500080008F7D8093800010C084B58F7702C0AC
:1004600084B58F7D84BD09C08091B0008F7703C0B3
:100470008091B0008F7D8093B000E32FF0E0EE0F0D
:10048000FF1FEE58FF4FA591B4912FB7F894662344
:1004900021F48C919095892302C08C91892B8C93A7
:1004A0002FBF0895CF93DF930E9484010E94030120
:1004B000C0E0D0E00E94E6002097E1F30E94000037
:1004C000F9CF629FD001739FF001829FE00DF11D73
:1004D000649FE00DF11D929FF00D839FF00D749FBE
:1004E000F00D659FF00D9927729FB00DE11DF91F6A
:1004F000639FB00DE11DF91FBD01CF0111240895C7
:1005000097FB092E05260ED057FD04D014D00AD033
:10051000001C38F450954095309521953F4F4F4F32
:100520005F4F0895F6F790958095709561957F4F90
:100530008F4F9F4F0895A1E21A2EAA1BBB1BFD01EE
:100540000DC0AA1FBB1FEE1FFF1FA217B307E407B2
:10055000F50720F0A21BB30BE40BF50B661F771F0A
:10056000881F991F1A9469F76095709580959095EA
:0E0570009B01AC01BD01CF010895F894FFCFAF
:02057E0001007A
:00000001FF
