:1000000026C040C03FC03EC03DC0D3C03BC03AC088
:1000100039C038C037C036C035C034C033C0000026
:10002000000037000000000038000000000036002B
:10003000020202020202020202020102040810206D
:10004000200410080102000000000000000011243C
:100050001FBECFE5D1E0DEBFCDBF10E0A0E6B0E02F
:10006000EEE6F4E002C005900D92A036B107D9F794
:1000700010E0A0E6B0E001C01D92AC36B107E1F798
:1000800081D1F3C1BDCF4F925F926F927F928F92D9
:100090009F92AF92BF92CF92DF92EF92FF920F9317
:1000A0001F93482E562E6A0148015901EE24D7FCB1
:1000B000E094FE2C60E472E48FE090E0A7019601EA
:1000C00097D13901142F052FC501B40128EE33E073
:1000D00040E050E074D19301412F502F89D1690144
:1000E0007A0188249924540117C0842D61E016D127
:1000F000852D60E013D1862D972DAFD0842D60E043
:100100000DD1852D61E00AD1862D972DA6D00894BA
:10011000811C911CA11CB11C8C149D04AE04BF0455
:1001200024F31F910F91FF90EF90DF90CF90BF903D
:10013000AF909F908F907F906F905F904F900895B9
:100140000F931F9381E01CD06AE070E026D1AC01D0
:10015000909361008093600083E064E005E010E02C
:1001600020E030E090DF1F910F91089584E061E07E
:1001700096D083E061E093D081E060E090D0089574
:10018000982F863008F09650977080916200829583
:10019000880F880F807C892B87B9369A3699FECFD5
:1001A00024B145B1942F80E030E0282B392BC901D0
:1001B00008951F920F920FB60F9211242F933F9321
:1001C0004F935F936F937F938F939F93AF93BF935F
:1001D00020916700309168004091690050916A0059
:1001E00070916B00DA01C9014096A11DB11D672F06
:1001F000605D6D3730F06D57DA01C9014196A11D80
:10020000B11D60936B008093670090936800A0938A
:100210006900B0936A008091630090916400A0919E
:100220006500B09166000196A11DB11D8093630029
:1002300090936400A0936500B0936600BF91AF9166
:100240009F918F917F916F915F914F913F912F91EE
:100250000F900FBE0F901F901895019739F00197DE
:1002600029F0880F991F01970197F1F70895789465
:100270008AB582608ABD8AB581608ABD83B7826093
:1002800083BF83B7816083BF89B7826089BF80B72E
:10029000826080BF329A319A309A379A0895CF930C
:1002A000DF93482F50E0CA01865C9F4FFC013491D8
:1002B000405D5F4FFA018491882369F190E0880FD7
:1002C000991FFC01E25EFF4FA591B491FC01EC5D2A
:1002D000FF4FC591D491662351F42FB7F8948C91B8
:1002E000932F909589238C93888189230BC062304A
:1002F00061F42FB7F8948C91932F909589238C9368
:100300008881832B88832FBF06C09FB7F8948C9178
:10031000832B8C939FBFDF91CF910895482F50E09E
:10032000CA018C5B9F4FFC012491CA01865C9F4FE0
:10033000FC019491405D5F4FFA013491332309F140
:10034000222359F0213019F0223039F403C08AB544
:100350008F7702C08AB58F7D8ABDE32FF0E0EE0F64
:10036000FF1FEC5DFF4FA591B4912FB7F894662362
:1003700021F48C919095892302C08C91892B8C93C8
:100380002FBF0895CF93DF9372DFF0DEC0E0D0E09F
:10039000D7DE2097E9F334DEFBCF5527002480FF1A
:1003A00002C0060E571F660F771F6115710521F0F9
:1003B00096958795009799F7952F802D0895FF279B
:1003C000EE27BB27AA2760FF04C0A20FB31FE41FBC
:1003D000F51F220F331F441F551F9695879577955C
:1003E000679589F70097760771F7CF01BD010895EA
:1003F00097FB092E05260ED057FD04D014D00AD045
:10040000001C38F450954095309521953F4F4F4F43
:100410005F4F0895F6F790958095709561957F4FA1
:100420008F4F9F4F0895A1E21A2EAA1BBB1BFD01FF
:100430000DC0AA1FBB1FEE1FFF1FA217B307E407C3
:10044000F50720F0A21BB30BE40BF50B661F771F1B
:10045000881F991F1A9469F76095709580959095FB
:0E0460009B01AC01BD01CF010895F894FFCFC0
:00000001FF
